:020000040800F2
:10000000980E002045010008FB140008F9130008B1
:10001000F9140008D10100080919000800000000C7
:100020000000000000000000000000002916000889
:10003000D301000800000000FD1400082B16000882
:100040005F0100085F0100085F0100085F01000810
:100050005F0100085F010008D5010008F9010008F0
:10006000FF010008050200080B0200085F010008FC
:100070005F0100085F0100085F0100085F010008E0
:100080005F0100085F0100085F0100085F010008D0
:100090005F0100085F0100085F010008110200080D
:1000A0005F0100085F0100085F0100085F010008B0
:1000B0005F0100085F0100085F0100085F010008A0
:1000C0005F0100085F0100085F0100085F01000890
:1000D0005F010008FD1800085F0100085F010008CB
:1000E000DB0100085F0100085F0100085F010008F4
:1000F0005F0100085F0100085F0100085F01000860
:100100005F0100085F0100085F0100085F0100084F
:100110005F0100085F0100085F0100085F0100083F
:100120005F0100085F0100085F0100085F0100082F
:10013000DFF80CD000F03AF80048004749190008F1
:10014000980E00200648804706480047FEE7FEE775
:10015000FEE7FEE7FEE7FEE7FEE7FEE7FEE7FEE777
:100160007116000831010008202A04DB203A21FA28
:1001700002F00021704721FA02F3D040C2F12002C0
:100180009140084319467047D2B201E000F8012BB4
:10019000491EFBD270470022F6E710B513460A4607
:1001A00004461946FFF7F0FF204610BD064C074DE8
:1001B00006E0E06840F0010394E807009847103437
:1001C000AC42F6D3FFF7B8FF141A0008341A00083F
:1001D000FEE77047012000F0ABBA10B54FF4806025
:1001E00000F0A6FA4FF4006000F0A2FABDE810405B
:1001F0004FF4805000F09CBA022000F099BA04201D
:1002000000F096BA082000F093BA102000F090BADF
:1002100010B5202000F08CFA402000F089FA8020F0
:1002200000F086FA4FF4807000F082FABDE81040CA
:100230004FF4007000F07CBA064A0021D1610649F3
:100240000A6942F002020A614861086940F0400010
:1002500008617047780A002000200240044B002209
:10026000DA61044A136943F00103136101807047A6
:10027000780A00200020024014480022C168CB0602
:10028000134904D5CA6942F00202CA611022C36848
:100290005B0705D5CB6943F00103CB6142F0040253
:1002A000C369DB0707D0CB6943F00403CB61C169A5
:1002B00021F00101C161A2F58071013901D0C26054
:1002C0007047C16921F00101C161704700200240FF
:1002D000780A002070B5054600F038FB0646114C40
:1002E00009E0681C07D025B100F030FB801BA84254
:1002F00001D9032070BDE068C007F2D1E068800634
:1003000001D52020E060E068C00605D4E069C007A0
:1003100002D1E068400703D5FFF7AEFF012070BDB2
:10032000002070BD002002402DE9F05F90F8211000
:100330000024022903D004218163012485E001689F
:100340000A6822F00E020A6001680A6822F00102BF
:100350000A603F4E3E4FB215DFF8F4C0DFF8F09070
:10036000DFF8ECA0DFF8E8B0DFF8E4E00168783F00
:1003700013011502ACF1640CA9F15009AAF13C0A71
:10038000ABF1280BAEF1140E4FF48018B14227D90F
:10039000B9420ED0614512D049451DD0514518D003
:1003A000594518D0714501D1424615E0294EB14258
:1003B00001D1012210E0274E1436B14201D11022A2
:1003C0000AE0244E2836B14206D0224A3C329142FD
:1003D00001D11A4600E02A461E49091F0A602BE097
:1003E000B94213D0614517D0494522D051451DD09F
:1003F00059451DD0714501D142461AE0B14202D1A2
:100400004FF0807215E0134EB14201D1012210E08D
:10041000104E1436B14201D110220AE00D4E28369A
:10042000B14206D00B4A3C32914201D11A4600E05B
:100430002A46074980394A60012180F821100021AD
:1004400080F82010416B01B188472046BDE8F09F3D
:10045000800002400804024070B5044600F076FABD
:100460000546601C02D004480078044400F06EFA8F
:10047000401BA042FAD370BD080000200348016968
:1004800041F080010161002070470000002002401F
:100490002DE9F05F07461C4888460024017E15467A
:1004A0001E46012909D00121814601764CF2503ABD
:1004B0005046FFF70FFF18B122E00220BDE8F09F81
:1004C000012F02D0022F00D00427D346DFF83CA032
:1004D000220128463146FFF747FE81B208EB44006F
:1004E000FFF7BCFE5846FFF7F5FEDAF8102022F0C1
:1004F0000102CAF8102018B9641CE4B2BC42E7D368
:10050000002289F81820D9E7780A0020002002404C
:10051000064900200A69120607D5054A4A60054ABD
:100520004A600969090600D5012070470020024091
:1005300023016745AB89EFCD70B57A4C7A4E04F153
:10054000F005012817D0794A022844D004284FD05A
:1005500008285AD0102865D0202875D040287FD090
:1005600080286ED0911588426CD1104600F0E8F9D1
:10057000002868D0CEE00120FFF76EFF0021216047
:100580006160A160E16021616161A161E16121625D
:100590006162A162E16229606960A960E960296124
:1005A0006961A961E96129625E486962A9623030C6
:1005B000E962016041608160C16001614161816106
:1005C000C161016241628162C16230225549304697
:1005D00000F0A4FF9EE00221104600F0B1F90028CF
:1005E00005D12868401C28602068401C206091E0EC
:1005F0000421104600F0A4F9002805D16868401CC9
:1006000068606068401C606084E00821104600F06B
:1006100097F900287ED1A868401CA860A068401CFB
:10062000A06077E01021104600F08AF9002871D10F
:10063000E868401CE860E068401CE0606AE003E0B5
:100640000EE019E02BE023E02021104600F078F9BD
:1006500020BB2869401C28612069401C206159E0AA
:100660004021104600F06CF9C0B96869401C68610F
:100670006069401C60614DE08021104600F060F927
:1006800060B9A869401CA861A069401CA06141E054
:10069000E869401CE861E069401CE0613AE04FF421
:1006A000007188420AD1104600F04AF918BB286A46
:1006B000401C2862206A401C20622BE04FF48061BD
:1006C00088420AD1104600F03BF9A0B9686A401C84
:1006D0006862606A401C60621CE04FF400618842FE
:1006E0000AD1104600F02CF928B9A86A401CA8626B
:1006F000A06A401CA0620DE04FF48051884209D1ED
:10070000104600F01DF928B9E86A401CE862E06A6A
:10071000401CE0623046BDE870403022014900F0E4
:10072000FDBE00001800002000000208001001407B
:10073000044910B50A68024202D00860FFF7FCFEC7
:1007400010BD0000140401402DE9F84FDFF8C891F6
:10075000002409F1040A0AF1040B23460F270BF1C8
:10076000040ED1E00125A54006EA0502AA4276D191
:10077000DFF8A8C14E68A6EB0C0866452BD00DDC4F
:10078000032E34D005DC36B3012E19D0022E2FD122
:100790001BE0112E16D0122E2AD119E0B8F5881FB1
:1007A00019D006DCB8F5803F15D0B8F5801F1FD1F1
:1007B00011E0B8F5001F0ED0B8F5041F18D10AE0FB
:1007C000CB6815E0CB681B1D12E0CB6808330FE047
:1007D000CB680C330CE08B682BB1012B4FF0080376
:1007E00003D0456104E0042302E0056100E000233A
:1007F000FF2A01D8064601E000F104064FEA84050D
:1008000001D9A5F12005D6F8008007FA05FC28EAF1
:100810000C0803FA05F548EA0508C6F800804D689B
:10082000ED0070D53E4DAE6946F00106AE61AD6992
:1008300024F0030605F0010500953A4D06EB050C82
:10084000DCF80850A607360F07FA06F825EA08056F
:10085000DFF8D480404503D14FF0000825E052E096
:10086000DFF8C880404502D14FF001081DE0DFF8F5
:10087000C080404502D14FF0020816E0DFF8B48096
:10088000404502D14FF003080FE0DFF8AC8040454F
:1008900002D14FF0040808E0DFF8A080404502D103
:1008A0004FF0050801E04FF0060808FA06F848EA9C
:1008B0000508CCF808804D68D9F80060ED034D4676
:1008C00001D5164300E096432E604D68DAF80060CB
:1008D000AD03554601D5164300E096432E604D68A2
:1008E000DBF80060ED025D4601D5164300E096435B
:1008F0002E604D68DEF80060AD02754601D51643E6
:1009000000E096432E60641C0A681646E2407FF4BD
:1009100029AFBDE8F88F000000040140000011106D
:10092000001002400000014000080140000C01409E
:10093000001001400014014000180140001C01405B
:100940008068084000D0012070470000014880689E
:1009500070470000080000200248816802781144B6
:100960008160704708000020074810B5016841F019
:1009700010010160032000F075F8002000F006F877
:1009800000F024F8002010BD0020024070B50D4D8D
:1009900004464FF47A712878B1FBF0F00A490968EF
:1009A000B1FBF0F000F0ECFA48B9102C07D20022AD
:1009B0002146501E00F036F800206C6070BD01200A
:1009C00070BD000008000020140000200C4808B58D
:1009D000816941F001018161816901F001010091AA
:1009E000C16941F08051C161C06900F08050009040
:1009F0000448416821F0E06141F08061416008BD38
:100A00000010024000000140002809DB00F01F0236
:100A1000012191404009800000F1E020C0F8001160
:100A200070470000F0B40E4B1B680C46C3F3022362
:100A3000C3F10705042D00D90425191D072901D28A
:100A4000002300E0DB1E012606FA05F1491E2140C5
:100A500099409E40761E16403143F0BC00F055BFD1
:100A60000CED00E0064900F0070208684FF6FF03AE
:100A7000184040EA0220034A104308607047000013
:100A80000CED00E00000FA052DE9F0470F460500E7
:100A900061D0434E306800F00700B84209D2306898
:100AA00020F0070038433060306800F00700B8429B
:100AB00051D128683B4C810712D5400703D56068A7
:100AC00040F4E06060602878000703D5606840F477
:100AD000605060606068A96820F0F00008436060C2
:100AE0002878C00728D06868012810D0216802281B
:100AF00010D0890700292EDA616821F00301014333
:100B00006160FFF723FF804641F288390DE02168DC
:100B10008903EFE78901EDE7FFF718FFA0EB080174
:100B2000494502D90320BDE8F0876068696800F094
:100B30000C00B0EB810FEFD1306800F00700B84235
:100B40000BD9306820F0070038433060306800F07F
:100B50000700B84201D00120E5E72878400705D515
:100B60006068E96820F4E060084360602878000766
:100B700006D56068296920F4605040EAC1006060D1
:100B800000F038F86168084AC1F30311515CC840AD
:100B90000649086006480068FFF7F8FE0020C2E733
:100BA0000020024000100240FC1900081400002040
:100BB0000C0000200448054900684968044AC1F354
:100BC0000221515CC8407047140000200010024010
:100BD0000C1A00080448054900684968044AC1F332
:100BE000C221515CC8407047140000200010024030
:100BF0000C1A000812A185B00FC98DE80F0014A0CF
:100C0000144A006804905168134801F00C03042B47
:100C100010D0082B0ED1C1F38343C9031DF8030084
:100C20000AD5516804AAC1F34041515C0A4A5043B5
:100C3000B0FBF1F005B0704708494843FAE70000FF
:100C400002030405060708090A0B0C0D0E0F10100D
:100C5000010200000010024000127A0000093D006D
:100C60002DE9F84F040070D02078C04DC00749D05E
:100C70006868C0F38100012807D06868C0F381006C
:100C8000022809D16868C00306D52868800339D5D1
:100C900060680028E7D035E06068B0F5803F0BD091
:100CA00010B1B0F5A02F11D0286820F48030286052
:100CB000286820F4802002E0286840F48030286012
:100CC000606890B1FFF742FE06460AE0286840F4EB
:100CD00080202860F0E700BFFFF738FE801B642803
:100CE00073D828688003F7D50CE0FFF72FFE06467F
:100CF00005E000BFFFF72AFE801B6428F0D82868B3
:100D00008003F7D420789A4E80074FF001094FF006
:100D1000000839D5686810F00C0F07D06868C0F378
:100D20008100022809D16868C00306D428688007BA
:100D300014D52069012808D110E02069B0B1C6F8A7
:100D40000090FFF703FE074605E00AE1FFF7FEFD0E
:100D5000C01B0228C4D828688007F7D528686169B5
:100D600020F0F80040EAC10028600DE0C6F80080DD
:100D7000FFF7ECFD074604E0FFF7E8FDC01B022883
:100D800023D828688007F7D4207800072CD5794825
:100D9000A169D9B1C0F80090FFF7D8FD074604E07B
:100DA000FFF7D4FDC01B02280FD8686A8007F7D56B
:100DB00071484FF4FA510068B0FBF1F0009000BFA9
:100DC0000098411E0091FAD20EE080E0C0F8008049
:100DD000FFF7BCFD074604E0FFF7B8FDC01B022883
:100DE00075D8686A8007F7D42078400760D5E8692D
:100DF0000027C00008D4E86940F08050E861E86945
:100E0000012700F0805000905C480168C90513D4A8
:100E10000168834641F480710160FFF797FD8246C7
:100E200006E000BFFFF792FDA0EB0A0064284ED851
:100E3000DBF80000C005F5D5E06801280AD008B14C
:100E4000052813D0286A20F001002862286A20F0C3
:100E5000040002E0286A40F001002862E06841F2E4
:100E6000883B98B1FFF772FD82460BE0286A40F09C
:100E700004002862EEE700BFFFF768FDA0EB0A015F
:100E800059455AD8286A8007F6D50CE0FFF75EFD71
:100E9000824605E0FFF75AFDA0EB0A0159454CD800
:100EA000286A8007F6D41FB1E86920F08050E86115
:100EB000E06988B36968C1F38101022944D002283E
:100EC000C6F8608004D0FFF741FD044638E034E006
:100ED000FFF73CFD074604E0FFF738FDC01B022882
:100EE0002BD828688001F7D4206AB0F5803F05D15F
:100EF0006868A16820F4003008436860D4E90801FC
:100F00000843696821F4741108436860C6F860906A
:100F1000FFF71CFD044606E025E000BFFFF716FDC5
:100F2000001B022809D828688001F7D51BE000BF04
:100F3000FFF70CFD001B022802D90320BDE8F88F43
:100F400028688001F4D40EE00128F7D06868226A8E
:100F500000F48031914204D1616A00F4701088423B
:100F600001D00120EAE70020E8E70000001002407D
:100F70000000424280044242140000200070004001
:100F800010B5401EB0F1807F01D3012010BD4FF09D
:100F9000E02460610F21601700F0B7FC0020A06121
:100FA00007202061002010BD7047000070B5026866
:100FB00004461068D168536910F00F0F51D003F048
:100FC000010501F4907635435DD0C20705D0CA050E
:100FD00003D5E26B42F00102E263420705D5DA076E
:100FE00003D0E26B42F00202E263820705D5DA0722
:100FF00003D0E26B42F00402E263020705D5DA0790
:1010000003D0E26B42F00802E263E26B002A34D0C4
:10101000800604D5880602D5204600F063FB2068D0
:101020004069E16BC0F3801001F0080101432046E4
:1010300024D000F049FB2068416949061AD541696E
:1010400021F040014161606BA0B11B494163606BBD
:10105000FFF76AF9002810D0606B416BBDE8704063
:10106000084783060FD58B060DD52046BDE8704096
:1010700000F038BB2046FFF797FF70BDFFF794FFE5
:101080000020E06370BD030606D50B0604D520469C
:10109000BDE8704000F0CEBB4006F3D54806F1D560
:1010A000D168204621F04001D160202184F8391018
:1010B00000F0A1F970BD0000B916000870B5040079
:1010C00004D094F83900002510B106E0012070BD6D
:1010D00084F83850204600F023F8242084F83900A2
:1010E0002068C16821F40051C160204600F046FB31
:1010F0002068016921F4904101612068416921F073
:101100002A0141612068C16841F40051C160E56372
:10111000202084F8390084F83A00002070BD0000D7
:1011200030B585B0002400940194029403940068C3
:10113000184988422CD11848816941F48041816165
:10114000816901F480410491816941F00401816168
:101150008069124D00F0040004904FF4007000907C
:10116000022001900320039069462846FFF7ECFA1D
:101170002815CDE90004694628460294FFF7E4FAF1
:10118000002211462520FFF74DFC2520FFF73CFCEF
:1011900005B030BD00380140001002400008014099
:1011A00090F83A30202B22D1F9B1F2B190F83830D2
:1011B000012B1CD081628285C2850021C16322225D
:1011C00080F83A2080F838100168CA6842F48072CA
:1011D000CA6001684A6942F001024A610068C16858
:1011E00041F02001C16000207047012070470220BB
:1011F000704700002DE9F8434A4D00274FF48078EE
:1012000028784FF6FF76FF280BD32F7041464648CB
:10121000FEF7C1FF33460A2244A1464800F08EF88B
:1012200077E04149EA780A54401CC0B2287008446B
:1012300010F8011CAA296CD110F8021CAA2968D147
:1012400010F8031CAA2964D110F8040CAA2860D154
:1012500035493022F039384800F052F901208DF834
:101260000000024633466946324800F067F83346CC
:10127000012269462F4800F061F833460122694691
:101280002C4800F05BF8334601226946294800F0FB
:1012900055F8334601226946264800F04FF8334698
:1012A00001226946234800F049F833460122694685
:1012B000204800F043F83346012269461D4800F0FB
:1012C0003DF8184933460122491C1A4800F036F807
:1012D000144933460122891C164800F02FF8334682
:1012E00001226946134800F029F8B1460E4E002449
:1012F000B6F1F00606EB84014B4601220D4800F0E2
:101300001DF8641C0C2CF5DB2F7041460648FEF7D7
:1013100042FFBDE8F84303490122C91C0548FFF715
:101320003FBF000000000020380100203F3F3F3F4A
:101330000000000038020020000002082DE9F843F8
:10134000044690F839001F4616460D46202850D115
:10135000A5B19EB194F8380001284AD0012084F844
:1013600038004FF00008C4F83C80212084F8390090
:10137000FFF7ECFAA6848146E68426E00120BDE86A
:10138000F883E08C401EE084A0684B46B0F5805F97
:101390004FF000024FF080012046009703D000F08C
:1013A0007AFAE8B90DE000F076FAC8B92888216821
:1013B000C0F308004860206908B16D1C05E0AD1C51
:1013C00003E0216815F8010B4860E08C0028D8D1B3
:1013D0004B46002240212046009700F05CFA08B1FD
:1013E0000320CCE7202084F8390084F838800020DE
:1013F000C5E70220C3E77047FEE70000F0B585B0FF
:10140000384800240394816941F0100181618169A9
:1014100001F010010491816941F008018161816945
:1014200001F008010491816941F004018161806942
:10143000012500F0040004902B482C4FCDE900500A
:101440000226694602963846FFF77EF941F6FE709D
:1014500000902748CDE9010569463846FFF774F941
:101460004FF6FF708DE8510069462248FFF76CF98E
:10147000002201210620FFF7D5FA0620FFF7C4FA63
:10148000002202210720FFF7CDFA0720FFF7BCFA60
:10149000002203210820FFF7C5FA0820FFF7B4FA5D
:1014A000002204210920FFF7BDFA0920FFF7ACFA5A
:1014B000002205210A20FFF7B5FA0A20FFF7A4FA57
:1014C000002206211720FFF7ADFA1720FFF79CFA3C
:1014D000002207212820FFF7A5FA2820FFF794FA19
:1014E00005B0F0BD001002400000111000100140D6
:1014F00000002110000C0140FEE77047704700001B
:1015000010B5002306E000BF30F8024B21F813406D
:101510005B1C9BB29342F7D310BD00002DE9F05F36
:10152000A0F1006415468A468346B4F5802F5FD249
:10153000FEF7EEFFE70AC4F34906C6F58064A5424C
:1015400000D82C46DFF8AC904FF0006000EBC720CD
:1015500080464FF480622749FFF7D2FF00204FF604
:10156000FF7106E0331839F813208A4203D1401C7A
:1015700080B2A042F6D3A0422ED24046FEF75CFED7
:101580004CF25030FEF7A6FE1B48016921F0020123
:1015900001610020494606E03AF810208319401CFA
:1015A00021F8132080B2A042F6D3124940464FF4EE
:1015B000806200BF00F022F8A54215D0281B0AEB7C
:1015C000440A0BEB440B002685B24FF480647F1C69
:1015D000A542B9D82C46B7E74CF25030FEF77AFE58
:1015E000224651465846E5E7BDE8F05FFEF746BFA4
:1015F000BDE8F09F78020020002002402DE9F04174
:1016000016460F46054600240AE000BF37F81420AE
:10161000002329460120FEF73BFF641CA4B2AD1C49
:10162000B442F3D3BDE8F0817047FFF795B910B528
:1016300090B028216846FEF7AEFD14210AA8FEF7F7
:10164000AAFD0220009001200490102000240590A3
:1016500007946846FFF704FB0F20CDE90A040C94B9
:101660000D9400210AA80E94FFF70EFA10B010BDD9
:101670000D48016841F00101016041680B4A1140C9
:10168000416001680A4A11400160016821F480212B
:101690000160416821F4FE0141604FF41F01816047
:1016A0000449C00308607047001002400000FFF8C2
:1016B000FFFFF6FE08ED00E010B5406A0021C1858D
:1016C000C184FFF771FC10BD0168CA6822F49072F2
:1016D000CA6001684A6922F001024A61202180F84B
:1016E0003A10704710B590F83A10222901D0022024
:1016F00010BD8168B1F5805F11D0016900290168D2
:101700001FD0496801F07F03816A4A1C82620B7016
:10171000C18D491E0904090CC18518D02BE002694E
:10172000816A002A0268526805D0D2B20A80816AB2
:10173000491C8162ECE7C2F308020A80816A891CB5
:10174000F7E74A68816A4B1C83620A70E0E7016828
:10175000CA6822F02002CA600168CA6822F4807256
:10176000CA6001684A6922F001024A61202180F8BA
:101770003A10FFF73FFD002010BD00002DE9F041B9
:10178000044600680169E26821F440511143016197
:101790002169A0680843616908432168CA6841F269
:1017A0000C639A430243CA6020684169A26921F42C
:1017B0004071114341611E492068642532268842E8
:1017C00002D1FFF707FA01E0FFF7F4F900EBC001DF
:1017D00001EB001160686FF018078000B1FBF0F2B8
:1017E000B2FBF5F2B1FBF0F37A4303EB8202B1FBFB
:1017F000F0F306EB0212B2FBF5F2B3FBF5F302F0E5
:10180000F00202EB0312B1FBF0F3B1FBF0F0B0FB1E
:10181000F5F0784303EB800006EB0010B0FBF5F029
:10182000216800F00F0010448860BDE8F0810000DE
:101830000038014090F83910212901D0022070476A
:101840008168B1F5805F016A0BD04A1C02620268B0
:1018500009785160C18C491E0904090CC1840ED05D
:1018600017E009880268C1F3080151600169002985
:10187000016A02D0491C0162ECE7891CFBE70168A0
:10188000CA6822F08002CA600068C16841F0400165
:10189000C160002070472DE9F041984617460E467A
:1018A0000446069D1DE0681C1BD02DB1FFF74EF8C5
:1018B000A0EB0800A84214D92068C16821F4D071B7
:1018C000C1602068416921F001014161202084F854
:1018D000390084F83A00002084F838000320BDE87D
:1018E000F0812068006836EA000004D00020B84289
:1018F000D9D00020F3E70120F9E700000148FFF705
:1019000055BB000038020020FEE70907090E002839
:1019100004DB00F1E02080F80014704700F00F00B5
:1019200000F1E02080F8141D704702E008C8121F83
:1019300008C1002AFAD170477047002001E001C1B8
:10194000121F002AFBD17047FFF70EF8FFF76FFE5A
:10195000FFF754FD24482349002401604FF4165139
:10196000C0E901140C21C460C0E904418461C46170
:10197000FFF7A4FB01221D491B48FFF711FC1D4D79
:1019800030221B492846FFF7BBFD19490868401C57
:1019900018D14868401C15D18868401C12D1C8680D
:1019A000401C0FD10C604C608C60CC600C614C61B1
:1019B0008C61CC610C624C628C623022CC62284615
:1019C000FFF7ACFD094C0C4D4FF47A66E41E30462F
:1019D000FEF742FDA86881B2080A61606070A170DC
:1019E000F5E7000000380140380200200300002025
:1019F0001800002000000208000C01400000000058
:101A000000000000010203040607080900000000AE
:101A100001020304341A000800000020180000002E
:101A20002A1900084C1A000818000020800E000037
:101A30003A1900080000000000000000010000004A
:0C1A400010000000000000000024F40072
:0400000508000131BD
:00000001FF
